:020000040800F2
:1000000048050020010100086106000825060008D7
:100010005D06000809030008DB0E00080000000070
:10002000000000000000000000000000410800087F
:100030000D03000800000000E9060008550900084B
:100040001701000817010008170100081701000830
:100050001701000817010008170100081701000820
:100060001701000817010008170100081701000810
:100070001701000817010008170100081701000800
:1000800017010008170100081701000817010008F0
:1000900017010008170100081701000817010008E0
:1000A00017010008170100081701000817010008D0
:1000B00017010008890A0008170100081701000845
:1000C00017010008170100081701000817010008B0
:1000D00017010008F50D00081701000817010008B6
:1000E000550300081701000817010008DFF80CD0BD
:1000F00000F0F8F8004800471D11000848050020EE
:1001000005480047FEE7FEE7FEE7FEE7FEE7FEE7FD
:10011000FEE7FEE7FEE7FEE7ED000008F0B480EA48
:100120000102D40F4200B2EB410F02D20246084650
:1001300011464A0042D0C30DDDB2C1F3C752AD1A19
:10014000202D35DAC1F3160141F4000204B1524208
:10015000C5F1200602FA06F12A411044B3EBD05F44
:1001600023D0C4B1012DA0EBC35009DCF0BC4FF08B
:10017000004202EAC352DBB200F5000000F083B88F
:10018000400000F1807000EBC350A0F1807040EAA5
:10019000D170490009E0490841EAC071A0EBC350A1
:1001A00000F50000400800EBC350F0BC00F062B85E
:1001B0006142012202EB4101001BF6E7F0BC7047EF
:1001C00081F00041AAE780F00040A7E780EA010241
:1001D00010B502F00043400022D04A001FD0010EAB
:1001E00001EB1261C0F35600C2F3560240F4000066
:1001F00042F40002A0FB022000047F39140400D066
:10020000401C50EA124001D44000491EC2B20C0604
:1002100004EBD010401C4008802A02D003E00020EC
:1002200010BD20F00100002900DA0020184310BDA5
:10023000C10F80EAE0700844CA079623002100F04D
:1002400022B800F0004220F00040C10DC0F31600BB
:1002500040F400007F2901DA00207047962903DC72
:10026000C1F19601C84001E096398840002AF4D0D7
:10027000404270470029A8BF7047401C490008BF92
:1002800020F00100704710B4B0FA80FC00FA0CF0C6
:1002900050EA010404BF10BC704749B1CCF12004FE
:1002A00021FA04F411FA0CF118BF0121214308438B
:1002B000A3EB0C01CB1D4FEA00614FEA102042BFB7
:1002C000002010BC704700EBC35010440029A4BFAD
:1002D00010BC7047401C490008BF20F0010010BC52
:1002E00070470000064C074D06E0E06840F001034F
:1002F00094E8070098471034AC42F6D3FFF7FAFEB3
:10030000401700086017000800BFFEE7704700B5FF
:10031000034603E04FF47A7000F005F8181EA3F1CD
:100320000103F7D100BD00EBC001C9004FF0E0228E
:100330005161002191610521116100BF4FF0E02161
:10034000096901F480310029F8D004214FF0E0223E
:100350001161704710B54620FFF7D9FF4FF40041F7
:10036000204800F052F900283BD14FF4004000F043
:1003700043F8B0B34FF400511B4800F04FF901F0BF
:10038000C1F9C820FFF7C3FF00F090FE40F2EE2055
:10039000FFF7BDFF00F024FE4FF4FA70FFF7B7FF40
:1003A00001F092F940F23D40FFF7B1FF00F018FE76
:1003B0004FF4FA70FFF7ABFF01F086F94FF4876056
:1003C000FFF7A5FF00F00CFE3C20FFF7A0FF00F0B8
:1003D0004FFE40F25230FFF79AFF4FF4004000F01A
:1003E00005F810BD000801400010014001490860F7
:1003F0007047000014040140014600200022074B12
:100400001B6803EA0102054B14331B680B4013B150
:100410000AB1012000E00020704700000004014004
:10042000002123498279002A3AD00A4612680368DB
:100430009A430B461A600A1D126803689A430B1D03
:100440001A60027911440A6803681A430A60184A5C
:100450000832126803689A43154B08331A601A1D54
:10046000126803689A43124B0C331A604279102ABF
:100470000ED11A1F126803681A430D4B08331A6015
:100480001A1D126803681A43094B0C331A600DE0F9
:100490000749427911440A6803681A430A6005E073
:1004A000027911440A6803689A430A6070470000A1
:1004B0000004014030B500228B071C0F0F2303FA04
:1004C00004F20B4B8C1053F824309343084C8D10DE
:1004D00044F8253023468C1053F824308C07240F21
:1004E00000FA04F42343024C8D1044F8253030BD4B
:1004F000080001402DE9F0410246002500260020B9
:1005000000230024002791F803C00CF00F0591F898
:1005100003C00CF0100CBCF1000F03D091F802C026
:100520004CEA050591F800C0BCF1000F31D0146809
:1005300000202BE04FF0010C0CFA00F3B1F800C0E2
:100540000CEA03069E4220D183004FF00F0C0CFAF8
:1005500003F7BC4305FA03FC4CEA040491F803C01A
:10056000BCF1280F06D14FF0010C0CFA00FCC2F8C8
:1005700014C00AE091F803C0BCF1480F05D14FF058
:10058000010C0CFA00FCC2F810C0401C0828D1D3A2
:100590001460B1F800C0BCF1FF0F34DD54680020D6
:1005A0002EE000F1080C4FF0010808FA0CF3B1F846
:1005B00000C00CEA03069E4221D183004FF00F0CCD
:1005C0000CFA03F7BC4305FA03FC4CEA040491F867
:1005D00003C0BCF1280F05D100F1080C08FA0CF893
:1005E000C2F8148091F803C0BCF1480F07D100F1A4
:1005F000080C4FF0010808FA0CF8C2F81080401CF3
:100600000828CED35460BDE8F081024600209368EC
:100610000B400BB1012000E00020704741617047A2
:100620000161704700BFFEE708B50121102000F00E
:10063000F7F810208DF803004002ADF80000032009
:100640008DF8020069460448FFF754FF4FF400514B
:100650000148FFF7E5FF08BD0010014000BFFEE7BD
:100660007047000070B5002100230F22C47804B346
:10067000154C246804F4E064C4F5E064210AC1F177
:100680000403CA40447804FA03F1847814402143F7
:1006900009010E4C0678A155047804F01F050124C9
:1006A000AC4005786D11AD0005F1E025C5F80041BD
:1006B00009E0047804F01F050124AC40044D0678DD
:1006C000761145F8264070BD0CED00E000E400E036
:1006D00080E100E002490143024A116070470000D6
:1006E0000000FA050CED00E0704700002DE9F0472E
:1006F00004460D46154E164F601BFFF799FD154930
:1007000008601548016813480068FFF759FD8246E4
:100710003946FFF75BFD80460E4801683046FFF71B
:1007200055FD82460D49FFF74EFD81464146FFF7D4
:10073000F5FC0B490860074800680749086008484D
:100740000068FFF77EFDBDE8F087000000006C4206
:1007500000000C42200000202800002000C00F45AF
:10076000240000202DE9F84F04460D461D4E1E4F73
:10077000DFF87880601BFFF75BFD1D4908600846C5
:1007800001681C480068FFF7C9FC1A4908601A484C
:10079000016817480068FFF713FD83464146FFF7DD
:1007A00015FD8146134801683846FFF70FFD834663
:1007B0000F4801683046FFF709FD59460090FFF7E2
:1007C000ADFC82464946FFF7A9FC0C490860084881
:1007D00000680949086009480068FFF732FDBDE874
:1007E000F88F00000080BB43D7A3303F00803B441C
:1007F0003C00002044000020480000204000002071
:1008000029B1064AD2690243044BDA6104E0034A83
:10081000D2698243014BDA61704700000010024048
:1008200029B1064A92690243044B9A6104E0034AE3
:1008300092698243014B9A617047000000100240A8
:10084000704710B500F002F810BD00000CB5002094
:10085000019000903348006840F4803031490860CE
:1008600000BF3048006800F4003000900198401C40
:100870000190009818B90198B0F5A06FF1D12948FE
:10088000006800F4003010B10120009001E0002069
:1008900000900098012843D12348006840F01000E0
:1008A000214908600846006820F0030008600846F7
:1008B000006840F0020008601A4840681949486022
:1008C0000846406848600846406840F480604860D8
:1008D0000846406820F47C1048600846406840F4B0
:1008E000E81048600846006840F08070086000BF6B
:1008F0000C48006800F000700028F9D009484068F2
:1009000020F00300074948600846406840F00200B4
:10091000486000BF0348406800F00C000828F9D187
:100920000CBD0000001002400020024010B5074836
:10093000008881B24FF0804000F005FA044800883A
:1009400081B24FF0804000F000FA10BD0C00002092
:10095000100000207047000010B51348006840F0F8
:1009600001001149086008464068104908400E49D6
:100970004860084600680E4908400B490860084670
:10098000006820F4802008600846406820F4FE00DB
:1009900048604FF41F008860FFF753FF4FF000607E
:1009A0000449086010BD0000001002400000FFF87C
:1009B000FFFFF6FE08ED00E030B589B005460C46B5
:1009C00001210846FFF71CFF01210420FFF728FF43
:1009D0000420ADF8200018208DF8230003208DF8A6
:1009E000220008A92748FFF785FD0820ADF8200060
:1009F00018208DF8230003208DF8220008A9214833
:100A0000FFF778FDADF81850ADF814400020ADF8B0
:100A10001A00ADF8160005A94FF0804000F098F9D3
:100A20006020ADF804000120ADF806000020ADF80C
:100A30000A00ADF80C0001A94FF0804000F0DEF88C
:100A40006020ADF804000120ADF806000020ADF8EC
:100A50000A00ADF80C0001A94FF0804000F028F921
:100A60000821C80600F01AF90821C80600F05EF94E
:100A70000121880700F08CF80121880700F097F821
:100A800009B030BD0008014010B50121224800F036
:100A90009AF800283ED000F0A3FA01211E4800F089
:100AA00083F800211D480068FFF75CFE1C490860C0
:100AB00000211C480068FFF719FE1B49086000F080
:100AC0000FFAFFF733FF1948006818BB1748406852
:100AD00000BB16488068E8B91448C068D0B913480C
:100AE0000069B8B911484069A0B91048806988B94F
:100AF0000E48C06970B90D48006A01280AD100206B
:100B0000064908600749086000F0FCFD4FF4FA60F0
:100B1000FFF7FDFB10BD0000000400404C0000206A
:100B200018000020500000201C00002020010020A0
:100B30007FB505460C4601210220FFF761FEADF8A6
:100B40000850ADF804400020ADF80A00ADF80600EA
:100B500001A90E4800F0FCF8012211460B4800F0F4
:100B600043F81D208DF8000001208DF801000220BF
:100B70008DF8020001208DF803006846FFF772FD32
:100B80000121024800F013F87FBD0000000400407E
:100B900021B1028842F08002028004E002884FF610
:100BA0007F731A4002807047CA430282704721B1A6
:100BB000028842F00102028004E002884FF6FE73D0
:100BC0001A400280704730B50246002000230024FE
:100BD000158A05EA0103958905EA010413B10CB1F0
:100BE000012000E0002030BD1AB183890B438381CE
:100BF00002E083898B4383817047000070B5002435
:100C000000220023058C4FF6FF6635400584028CD8
:100C10008388848B4FF68F752C404FF6FC752C40E3
:100C20000D882C434FF6FF552A400D894FF6FF766D
:100C300006EA05252A434D8806EA05252A43154D6F
:100C4000A84202D0144DA8421DD14FF2FF752A4090
:100C50004D894FF6FF7606EA05252A434FF6FF3504
:100C60002A408D8806EA05252A434EF6FF752B405B
:100C70004DF6FF752B408D8906EA05152B43CD896E
:100C800006EA05152B4383808483CD8885870284FB
:100C900070BD0000002C0140003401400A460021D4
:100CA000818B4FF6F7731940114381837047000021
:100CB00070B5002200230024058C4EF6FF763540E7
:100CC0000584038C8488828B48F6FF752A404FF692
:100CD000FF452A400D884FF6FF7606EA05252A4390
:100CE0004DF6FF752B400D8906EA05352B434D88DF
:100CF00006EA05352B430B4DA84202D00A4DA84207
:100D000008D14BF6FF752C408D894FF6FF7606EA29
:100D100085152C4384808283CD88A0F840500384BD
:100D200070BD0000002C0140003401400A46002143
:100D3000818B4FF2FF7319404FF6FF7303EA0223D2
:100D400019438183704781877047A0F8401070472E
:100D5000002202881D4B98420ED01D4B98420BD0AA
:100D6000B0F1804F08D01B4B984205D01A4B9842E7
:100D700002D01A4B984204D14FF68F731A404B8819
:100D80001A43174B984207D0164B984204D04FF69F
:100D9000FF431A40CB881A4302808B8883850B88D7
:100DA00003850A4B98420BD0094B984208D00E4B52
:100DB000984205D00D4B984202D00D4B984201D17C
:100DC0000B7A03860123838270470000002C0140C8
:100DD000003401400004004000080040000C0040C6
:100DE0000010004000140040004001400044014059
:100DF0000048014010B540F225511D4800F03EF872
:100E000010B31B4800F064F8C4B21A48008800F41C
:100E10000040C8B91748008800F4804060B10A2C2F
:100E200003D000201349088020E01248008840F4D5
:100E300000401049088019E00D2C06D10D480088AB
:100E400040F480400B49088010E00A480088C0F355
:100E50000D0009490C5407480088401C05490880CA
:100E600008460088C72801DD0020088010BD00006A
:100E700000380140040000205800002070B50246F0
:100E8000002400230025002040F66A16B14200D15C
:100E900000BFC1F3421501F01F03012606FA03F358
:100EA000012D02D19689334006E0022D02D1168A27
:100EB000334001E0968A33400C12012606FA04F40E
:100EC0001688344013B10CB1012000E0002070BD41
:100ED00001468888C0F30800704700BFFEE70000A5
:100EE00017480068174909680844174908601448FA
:100EF000006814490968401A1449086012480068DB
:100F0000B0F5E15F03DD4FF4E1500F4908600E4892
:100F10000068002802DA00200B4908600B480068CE
:100F2000B0F5E15F03DD4FF4E15008490860074880
:100F30000068002802DA00200449086070470000B9
:100F40001C000020180000200C00002010000020D1
:100F500002E008C8121F08C1002AFAD17047704782
:100F6000002001E001C1121F002AFBD170470000E0
:100F70001FB501210520FFF753FC0F210020FFF7CB
:100F800099FA18208DF803004FF40040ADF80000E6
:100F900003208DF8020069461048FFF7ABFA4FF4C2
:100FA0000040029001208DF80E0000208DF80C000A
:100FB0000C208DF80D0002A8FFF732FA28208DF8DA
:100FC000040000208DF805008DF8060001208DF842
:100FD000070001A8FFF746FB1FBD00000008014005
:100FE00010B540F6C4110807FFF7ADFE40F6C41176
:100FF0000807FFF7AAFE01210748FFF711FB0221AE
:101000000548FFF70BFB10210348FFF709FB2021E0
:101010000148FFF703FB10BD0008014008B501219E
:101020000420FFF7FDFB01210820FFF7F9FB042056
:101030008DF803004FF49860ADF8000003208DF8A0
:10104000020069460848FFF755FA04208DF80300AE
:1010500040F2C330ADF8000003208DF8020069466D
:101060000248FFF747FA08BD00080140000C0140A4
:1010700010B540F6C4110807FFF765FE40F6C4112D
:101080000807FFF762FE01210748FFF7C7FA0221B0
:101090000548FFF7C3FA10210348FFF7C1FA2021E2
:1010A0000148FFF7BBFA10BD0008014010B540F63B
:1010B000C4110807FFF747FE40F6C4110807FFF701
:1010C00044FE01210748FFF7A9FA02210548FFF76E
:1010D000A7FA10210348FFF7A1FA20210148FFF7E2
:1010E0009DFA10BD0008014008B501210420FFF75A
:1010F00097FB01210820FFF793FB10208DF80300D8
:101100003320ADF8000003208DF802006946024844
:10111000FFF7F0F908BD000000080140FFF71CFCD4
:10112000FFF782FAFFF7E0FFFFF778FF4FF4A060C8
:10113000FFF7D0FA002141F61F40FFF73DFC41F6D2
:101140001F416320FFF7F4FCFFF712FF01E000F0FE
:1011500001F8FCE710B54021FE48FFF756FAFE49BA
:1011600008608021FB48FFF750FAFB4948600121E5
:10117000FA48FFF74AFAF84988600221F748FFF772
:1011800044FAF549C8604021F448FFF73EFAF249B5
:1011900008618021F148FFF738FAEF4948614FF4C0
:1011A0008071EE48FFF731FAEB4988614FF4007126
:1011B000EA48FFF72AFAE849C8614FF48061E54838
:1011C000FFF723FAE44908620846006801281FD1A6
:1011D0000846406801281BD108468068012817D1BD
:1011E0000846C068A0B90846006988B90846406941
:1011F00001280DD108468069012809D10846C06937
:10120000012805D10020D6490860D649086053E27C
:10121000D1480068D0B9D0484068B8B9CE48806895
:10122000A0B9CD48C06888B9CB48006970B9CA4830
:10123000406958B9C848806940B9C748C06928B9E9
:101240000020C7490860C749086035E2C248006805
:10125000012820D1C048406801281CD1BE488068C0
:10126000C8B9BD48C068B0B9BB480069012812D1EF
:10127000B948406901280ED1B748806901280AD1D0
:10128000B548C069012806D1001FB5490860012092
:10129000B449086010E2B0480068012820D1AE4887
:1012A000406801281CD1AC488068012818D1AA48A0
:1012B000C068012814D1A848006988B9A6484069C7
:1012C00070B9A548806901280AD1A348C0690128DE
:1012D00006D10320A24908600120A2490860EBE181
:1012E0009D480068012820D19B484068E8B99A4889
:1012F0008068D0B99848C068012816D1964800691E
:10130000012812D19448406901280ED19248806981
:1013100001280AD19048C069012806D1801F904950
:10132000086002208F490860C6E18B4800680128E8
:1013300020D18948406801281CD18748806801284D
:1013400018D18548C068012814D183480069012854
:1013500010D18148406968B97F48806950B97E489A
:10136000C069012806D105207D49086002207D4919
:101370000860A1E17848006810BB77484068F8B978
:101380007548806801281BD17348C068012817D1AF
:1013900071480069012813D16F48406901280FD1B5
:1013A0006D48806901280BD16B48C069012807D1BD
:1013B0006FF008006A49086005206A4908607BE10F
:1013C00065480068012820D16348406801281CD185
:1013D00061488068012818D15F48C068012814D18D
:1013E0005D480069012810D15B48406901280CD193
:1013F0005948806948B95848C06930B909205849E6
:10140000086005205749086056E153480068F8B95C
:1014100051484068E0B950488068C8B94E48C06833
:10142000B0B94D48006998B94B48406901280FD1BF
:101430004948806901280BD14748C069012807D174
:101440006FF006004649086003204649086033E112
:101450004148006801281DD13F484068012819D142
:101460003D488068012815D13B48C06890B93A488A
:10147000006978B93848406960B93748806948B927
:101480003548C06930B9072035490860032035491F
:10149000086011E13048006801281FD12E484068DB
:1014A00001281BD12C488068012817D12A48C06820
:1014B000A0B92948006988B92748406901280DD199
:1014C00025488069012809D12348C06930B90F2017
:1014D00023490860022023490860EDE01E480068A7
:1014E000012820D11C48406801281CD11A48806876
:1014F000012818D11848C068A8B917480069012800
:1015000011D11548406901280DD11348806901287F
:1015100009D11148C06930B90F2011490860022073
:1015200010490860C8E00C48006801282CD10A481E
:101530004068012828D108488068012824D106483D
:10154000C068012820D104480069E8B90248406910
:10155000012809E00008014020010020000C0140A2
:101560004C000020500000200ED154488069012812
:101570000AD15248C069012806D1032050490860A9
:1015800001205049086097E04C480068012821D1AB
:101590004A48406801281DD148488068012819D16F
:1015A0004648C068012815D144480069012811D176
:1015B0004248406970B94148806901280AD13F48D2
:1015C000C069012806D105203D49086002203D4937
:1015D000086071E039480068012821D13748406827
:1015E00001281DD135488068012819D13348C068C9
:1015F000012815D131480069012811D12F484069CF
:1016000001280DD12D48806950B92C48C0690128A6
:1016100006D105202A49086003202A4908604BE0CA
:101620002648006818BB2548406801281FD1234878
:10163000806801281BD12148C068012817D11F48A4
:101640000069012813D11D48406901280FD11B48AA
:10165000806901280BD11948C069012807D16FF0B2
:1016600008001749086005201649086024E013485F
:101670000068012820D11148406801281CD10F487A
:101680008068012818D10D48C068012814D10B4882
:101690000069012810D10948406901280CD1074888
:1016A0008069012808D10548C06928B90920044982
:1016B000086005200349086010BD000020010020DB
:1016C0004C0000205000002010B540F6C41108075F
:1016D000FFF739FB40F6C4110807FFF736FB01217D
:1016E0000748FEF79DFF02210548FEF797FF1021EE
:1016F0000348FEF793FF20210148FEF78FFF10BD3E
:101700000008014010B500214FF08040FFF71BFB9F
:1017100000214FF08040FFF718FB01210748FEF73A
:101720007DFF02210548FEF77BFF10210348FEF7ED
:1017300075FF20210148FEF773FF10BD000801402E
:10174000601700080000002058000000500F00083B
:10175000B817000858000020F0040000600F0008CF
:101760000000000000000000000000000000000079
:101770000000000000000000000000000000000069
:101780000000000000000000000000000000000059
:101790000000000000000000000000000000000049
:1017A0000000000000000000000000000000000039
:0817B000000000000000000031
:04000005080000ED02
:00000001FF
